S01500007975625F313130375F4D6172742E73726563A4
S113000045C0000060C000005EC000005CC000008D
S11300105AC0000058C0000056C0000054C0000080
S113002052C0000050C000004EC000004CC0000090
S11300304AC0000048C0000046C0000044C00000A0
S113004059C1000040C000003EC000003CC0000098
S11300503AC0000038C0000036C0000034C00000C0
S113006032C0000030C000002EC000002CC00000D0
S11300702AC0000028C0000026C0000024C00000E0
S113008022C0000020C000001EC0000011241FBEBA
S1130090CFEFD0E1DEBFCDBF11E0A0E0B1E0E8EDED
S11300A0FEE000E00BBF02C007900D92A43EB10732
S11300B0D9F721E0A4EEB1E001C01D92AC3FB20734
S11300C0E1F77CD107C79CCF8FEF84BB85BB089534
S11300D0982F907F95BBAA9AAA9820E1829FC0018D
S11300E0112485BBAA9AAA988FE39FE10197F1F79F
S11300F000C000000895982F907F916095BBAA9A44
S1130100AA9820E1829FC0011124816085BBAA9A2C
S1130110AA988FE39FE10197F1F700C000000895CA
S1130120662319F0613021F008958058D1CF0895E5
S11301308054CECF08950F931F93CF93DF93042F52
S1130140152FEEDFC02FD12F8991D5DF8881811142
S1130150FBCFDF91CF911F910F910895B5DF2FEF62
S113016083EC99E0215080409040E1F700C000000A
S11301708FE599E00197F1F700C0000088E2A8DF5D
S11301809FEF23EC89E0915020408040E1F700C0CC
S1130190000088E29DDF9FEF23EC89E0915020402E
S11301A08040E1F700C000008CE092DF86E090DF41
S11301B082E08EDF81E08CDF81E08ACF089581E0E8
S11301C087DF8FE39CE90197F1F700C000000895F1
S11301D01F93CF93DF938FEF8ABB8FE081BB81E0C6
S11301E087BF87E083BF8FE39FE10197F1F700C0EA
S11301F00000B4DFE4DFC2E0D0E01FEF44E151E0EF
S113020060E080E098DF45E251E061E080E093DF68
S11302101BBA9FEF21EE84E0915020408040E1F72B
S113022000C00000CCDF1BBB9FEF21EE84E09150A7
S113023020408040E1F700C000002197F9F678944F
S1130240DF91CF911F9108950F931F93CF93DF9365
S1130250CDB7DEB760970FB6F894DEBF0FBECDBF43
S11302605F934F937F936F939F938F9386E391E074
S11302709F938F938E010F5F1F4F1F930F934FD345
S1130280A80161E080E057DF0FB6F894DEBF0FBE2F
S1130290CDBF60960FB6F894DEBF0FBECDBFDF9121
S11302A0CF911F910F91089520E030E041E050E09C
S11302B0CA01022E02C0880F991F0A94E2F78095A2
S11302C082BB8FE39CE90197F1F700C0000080B383
S11302D090E080959095807F9927892B19F080B3C1
S11302E090E008952F5F3F4F2430310509F780E0F7
S11302F090E008951F920F920FB60F9211248F93DE
S11303009F938091F2019091F30101969093F301F0
S11303108093F2018091FA019091FB0101969093F0
S1130320FB018093FA01CC9708F441C08091F80155
S11303309091F90101969093F9018093F801CC977B
S113034068F08091F6019091F70101969093F7017E
S11303508093F6011092F9011092F8018091F60150
S11303609091F701CC9768F08091F4019091F50198
S113037001969093F5018093F4011092F701109285
S1130380F6018091F4019091F501499760F0109283
S1130390F9011092F8011092F7011092F6011092EF
S11303A0F5011092F4011092FB011092FA019F9151
S11303B08F910F900FBE0F901F901895CF93DF93DE
S11303C0CDB7DEB760970FB6F894DEBF0FBECDBFD2
S11303D0FFDECC24C394D12C0F2EF1E9AF2EF1E033
S11303E0BF2EF02DCE0101967C010F2EFBE98F2E3E
S11303F0F1E09F2EF02D0F2EFFE76F2EF02D689465
S1130400442442F8512C6894222421F8312C772476
S11304107A944ADF8C01009759F41092E701109204
S1130420E6018091F0019091F1010097A9F569C26C
S113043087379105A1F4C3DE7BBA1092F1011092C3
S1130440F0014091F8015091F9016091F601709129
S1130450F7018091F4019091F501F6DEDACF8091F5
S1130460F0019091F1010097B9F44091F801509195
S1130470F9016091F6017091F7018091F401909176
S1130480F501E2DE0B37110509F0C3CF98DED092F7
S1130490F101C092F001BDCF8130910509F047C050
S11304A04DE451E060E080E046DE4EE551E061E07D
S11304B080E041DE0E3E110569F481DE4FE651E035
S11304C060E080E038DE9FED9BBB3092F10120922A
S11304D0F00123C00E3D110501F571DE40E851E045
S11304E060E080E028DE8091E9018F938091E8014B
S11304F08F93BF92AF92FF92EF9211D2A70161E066
S113050080E019DE6BBA5092F1014092F0010F9035
S11305100F900F900F900F900F902FEF80E792E0C5
S1130520215080409040E1F700C0000072CF82303B
S1130530910509F02BC18091E4019091E501892B8B
S113054009F00AC14091E6015091E701E0E0F1E0D1
S113055080E090E0219131910217130771F5411564
S1130560510559F5D092E701C092E6012091EE01C0
S11305703091EF01A901440F551F220F331F220FA1
S1130580331F220F331F240F351F820F931F9093A5
S1130590EF018093EE019F938F939F928F92FF922E
S11305A0EF92BDD1A70161E080E0C5DD0F900F900F
S11305B00F900F900F900F9004C001968A30910510
S11305C049F60E37110509F05BC08091E601909160
S11305D0E701892B09F01DCFD092E701C092E60113
S11305E08091EE019091EF0181329E4488F182E185
S11305F0EEE9F1E0D70101900D928A95E1F703E06D
S113060010E0A70161E080E096DD8FEF91EE24E039
S1130610815090402040E1F700C0000040EB51E0E1
S113062061E080E088DD8FEF91EE24E0815090401E
S11306302040E1F700C000000150110911F71092A9
S1130640F1011092F0011092ED011092EC0113C02F
S113065040EB51E061E080E06EDD2091EC013091EF
S1130660ED018091EE019091EF01820F931F909321
S1130670ED018093EC011092EF011092EE01C9CECE
S11306800D37110509F068C08091E6019091E701EA
S1130690892B09F0BECED092E701C092E6012091E9
S11306A0EE013091EF0121328EE4380788F181E1C7
S11306B0E1ECF1E0D70101900D928A95E1F703E0B6
S11306C010E0A70161E080E036DD9FEF21EE84E0D9
S11306D0915020408040E1F700C0000040EB51E021
S11306E061E080E028DD9FEF21EE84E0915020401E
S11306F08040E1F700C000000150110911F7109289
S1130700F1011092F0011092ED011092EC011FC062
S11307108091EC019091ED01820F931F9093ED0174
S11307208093EC019F938F93BF92AF92FF92EF92CD
S1130730F6D0A70161E080E0FEDCD092E501C09232
S1130740E4010F900F900F900F900F900F90109264
S1130750EF011092EE015DCE073B110509F059CE71
S11307608091E4019091E501019709F052CE27DDD3
S113077042ED51E060E080E0DEDC9FEB9BBB83E078
S113078090E09093F1018093F00143CE8330910582
S113079009F09EC01092E5011092E4014091E60137
S11307A05091E701E0E0F1E080E090E021913191A7
S11307B00217130771F54115510559F5D092E70158
S11307C0C092E6012091EA013091EB01A901440FA6
S11307D0551F220F331F220F331F220F331F240FE5
S11307E0351F820F931F9093EB018093EA019F932F
S11307F08F939F928F92FF92EF9291D0A70161E025
S113080080E099DC0F900F900F900F900F900F9055
S113081004C001968A30910549F60D37110509F097
S1130820F8CD8091E6019091E701892B09F0F1CD93
S1130830D092E701C092E6018091EA019091EB0128
S11308402091EC013091ED0182179307B8F10091EA
S1130850F2011091F30108571C4E4091E8015091A8
S1130860E901420F531F5093E9014093E801821BB1
S1130870930B9F938F93BF92AF92FF92EF924FD0BF
S1130880A70161E080E057DC1092ED011092EC01C9
S11308900F900F900F900F900F900F9005DD209107
S11308A0F2013091F3010217130718F0873791050D
S11308B0A9F71092F1011092F00105C040EB51E04C
S11308C061E080E038DC1092EB011092EA01A1CDE6
S11308D0049709F09ECD0091F2011091F30108579D
S11308E01C4EE2DC2091F2013091F3010217130750
S11308F018F08737910579F71092F1011092F00101
S113090088CD4091F8015091F9016091F601709100
S1130910F7018091F4019091F50196DC7ACD0F9363
S11309201F93CF93DF93CDB7DEB72E970FB6F8940E
S1130930DEBF0FBECDBF0D891E8986E08C831A836E
S113094009838FEF9FE79E838D83AE01475E5F4FE0
S11309506F89788DCE01019610D0EF81F885E00F74
S1130960F11F10822E960FB6F894DEBF0FBECDBFD6
S1130970DF91CF911F910F9108952F923F924F9243
S11309805F926F927F928F929F92AF92BF92CF921B
S1130990DF92EF92FF920F931F93CF93DF93CDB724
S11309A0DEB72B970FB6F894DEBF0FBECDBF6C0138
S11309B07B018A01FC0117821682838181FFBFC1FA
S11309C0CE0101963C01F6019381F70193FD8591D7
S11309D093FF81917F01882309F4ADC1853239F4F5
S11309E093FD859193FF81917F01853221F4B601B6
S11309F090E0D6D1E8CF912C212C312CFFE1F315D6
S1130A00D8F08B3279F038F4803279F08332A1F463
S1130A10232D20611DC08D3261F0803369F4232DB4
S1130A20216016C0832D8260382EE32DE4603E2EB3
S1130A302AC0F32DF8601DC037FC2DC020ED280F0F
S1130A402A3040F08E32B9F436FC75C1232D20646F
S1130A50322E19C036FE06C08AE0989E200D11245D
S1130A60922E11C0EAE02E9E200D1124222EF32D89
S1130A70F0623F2E08C08C3621F4832D8068382E16
S1130A8002C0883641F4F70193FD859193FF81916B
S1130A907F018111B3CF982F9F7D9554933028F413
S1130AA00C5F1F4F9FE399830DC0833631F083376A
S1130AB071F0833509F055C020C0F8018081898325
S1130AC00E5F1F4F88248394912C530112C0280178
S1130AD0F2E04F0E511CF801A080B18036FE03C035
S1130AE0692D70E002C06FEF7FEFC5014ED14C015C
S1130AF08201F32DFF773F2E15C0280122E0420E1C
S1130B00511CF801A080B18036FE03C0692D70E04D
S1130B1002C06FEF7FEFC5012DD14C01F32DF068BA
S1130B203F2E820133FC19C0822D90E0881699066D
S1130B30A0F4B60180E290E033D12A94F5CFF50118
S1130B4037FC859137FE81915F01B60190E028D191
S1130B5021102A9421E0821A91088114910479F7D2
S1130B60E1C0843611F0893639F5F80137FE07C043
S1130B7060817181828193810C5F1F4F08C0608105
S1130B807181072E000C880B990B0E5F1F4FF32DFC
S1130B90FF763F2E97FF09C09095809570956195DB
S1130BA07F4F8F4F9F4FF0683F2E2AE030E0A30124
S1130BB033D1882E861844C0853731F4232D2F7EF7
S1130BC0B22E2AE030E025C0932D997FB92E8F36BE
S1130BD0C1F018F4883579F0AEC0803719F0883741
S1130BE021F0A9C0E92FE061BE2EB4FE0DC0FB2D9B
S1130BF0F460BF2E09C034FE0AC0292F2660B22E2D
S1130C0006C028E030E005C020E130E002C020E169
S1130C1032E0F801B7FE07C060817181828193815F
S1130C200C5F1F4F06C06081718180E090E00E5F11
S1130C301F4FA301F1D0882E8618FB2DFF773F2E7E
S1130C4036FE0DC0232D2E7FA22E891458F434FEB7
S1130C500BC032FC09C0832D8E7EA82E05C0B82C93
S1130C60A32C03C0B82C01C0B92CA4FE0FC0FE01F4
S1130C70E80DF11D8081803321F49A2D997EA92EEF
S1130C8009C0A2FE06C0B394B39404C08A2D86782A
S1130C9009F0B394A3FC10C0A0FE06C0B21480F403
S1130CA0280C922C9B180DC0B21458F4B60180E2A3
S1130CB090E076D0B394F8CFB21418F42B1802C095
S1130CC0982C212CA4FE0FC0B60180E390E068D0DC
S1130CD0A2FE16C0A1FC03C088E790E002C088E52C
S1130CE090E0B6010CC08A2D867851F0A1FE02C0B6
S1130CF08BE201C080E2A7FC8DE2B60190E050D007
S1130D00891430F4B60180E390E04AD09A94F8CF85
S1130D108A94F301E80DF11D8081B60190E040D082
S1130D208110F6CF222009F44ECEB60180E290E085
S1130D3037D02A94F7CFF6018681978102C08FEFCE
S1130D409FEF2B960FB6F894DEBF0FBECDBFDF9199
S1130D50CF911F910F91FF90EF90DF90CF90BF90B4
S1130D60AF909F908F907F906F905F904F903F9047
S1130D702F900895FC010590615070400110D8F740
S1130D80809590958E0F9F1F0895FC0161507040CF
S1130D9001900110D8F7809590958E0F9F1F0895AC
S1130DA00F931F93CF93DF93FB01238121FD03C096
S1130DB08FEF9FEF2CC022FF16C0468157812481FC
S1130DC035814217530744F4A081B1819D012F5FFF
S1130DD03F4F318320838C93268137812F5F3F4F90
S1130DE03783268314C08B01EC01FB010084F18559
S1130DF0E02D0995892BE1F6D80116968D919C91E9
S1130E001797019617969C938E931697CE01DF91B0
S1130E10CF911F910F910895FA01AA27283051F11B
S1130E20203181F1E8946F936E7F6E5F7F4F8F4F17
S1130E309F4FAF4FB1E03ED0B4E03CD0670F781F76
S1130E40891F9A1FA11D680F791F8A1F911DA11D5B
S1130E506A0F711D811D911DA11D20D009F4689494
S1130E603F912AE0269F11243019305D3193DEF63C
S1130E70CF010895462F4770405D4193B3E00FD0F2
S1130E80C9F7F6CF462F4F70405D4A3318F0495DDD
S1130E9031FD4052419302D0A9F7EACFB4E0A695C0
S1130EA09795879577956795BA95C9F700976105E2
S1130EB0710508959B01AC010A2E06945795479538
S1130EC037952795BA95C9F7620F731F841F951F2D
S10B0ED0A01D0895F894FFCF62
S1130ED8E700EE00DE00BE00ED00DD00BD00EB0023
S1130EE8DB00BB0020202020204D41524B455420DC
S1130EF82020202000202020202053595354454DE1
S1130F0820202020200020202020253032643A256B
S1130F183032643A253032642020202000313A20CF
S1130F2843616C63756C6174696F6E202000323A9A
S1130F3820546F74616C2053616C657320200043E6
S1130F48616C63756C617465204D6F646520200065
S1130F58546F74616C2053616C65732020202020C9
S1130F68003D2531316420776F6E00256400202010
S1130F782020204552524F5221202020202020009A
S1130F882020202020202020202020202020202055
S1130F980020202020204552524F5221202020207A
S1130FA820004368616E676573204D6F6465202077
S1070FB820200000F1
S9030000FC
