S01500007975625F313130375F4D6172742E73726563A4
S113000045C0000058C0000056C0000054C00000A5
S113001052C0000050C000004EC000004CC00000A0
S11300204AC0000048C0000046C0000044C00000B0
S113003042C0000040C000003EC000003CC00000C0
S11300403AC0000038C0000036C0000034C00000D0
S113005032C0000030C000002EC000002CC00000E0
S11300602AC0000028C0000026C0000024C00000F0
S113007022C0000020C000001EC000001CC0000000
S11300801AC0000018C0000016C0000011241FBED2
S1130090CFEFD0E1DEBFCDBF11E0A0E0B1E0EAE2F6
S11300A0F2E000E00BBF02C007900D92A232B1074C
S11300B0D9F7B7D0B8C0A4CF8FEF84BB85BB089560
S11300C0982F907F95BBAA9AAA9820E1829FC0019D
S11300D0112485BBAA9AAA988FE39FE10197F1F7AF
S11300E000C000000895982F907F916095BBAA9A54
S11300F0AA9820E1829FC0011124816085BBAA9A3D
S1130100AA988FE39FE10197F1F700C000000895DA
S1130110662319F0613021F008958058D1CF0895F5
S11301208054CECF08950F931F93CF93DF93042F62
S1130130152FEEDFC02FD12F8991D5DF8881811152
S1130140FBCFDF91CF911F910F910895B5DF2FEF72
S113015083EC99E0215080409040E1F700C000001A
S11301608FE599E00197F1F700C0000088E2A8DF6D
S11301709FEF23EC89E0915020408040E1F700C0DC
S1130180000088E29DDF9FEF23EC89E0915020403E
S11301908040E1F700C000008CE092DF86E090DF51
S11301A082E08EDF81E08CDF81E08ACF089581E0F8
S11301B087DF8FE39CE90197F1F700C00000089501
S11301C01F93CF93DF938FEF8ABB8FE081BBBEDF9A
S11301D0EEDFC2E0D0E010E740E051E060E080E014
S11301E0A2DF41E151E061E080E09DDF1BBA2FEF27
S11301F081EE94E0215080409040E1F700C000007F
S1130200D6DF1BBB2FEF81EE94E02150804090405D
S1130210E1F700C000002197F9F6DF91CF911F911B
S10D02200895CEDFFFCFF894FFCF5E
S113022A20202020204D41524B45542020202020BC
S113023A00202020202053595354454D20202020AB
S105024A20008E
S9030000FC
